{
  "_format": "hh-sol-artifact-1",
  "contractName": "Tapek",
  "sourceName": "contracts/Tapek.sol",
  "abi": [
    {
      "inputs": [],
      "stateMutability": "nonpayable",
      "type": "constructor"
    },
    {
      "anonymous": false,
      "inputs": [
        {
          "indexed": true,
          "internalType": "address",
          "name": "user",
          "type": "address"
        },
        {
          "indexed": false,
          "internalType": "uint256",
          "name": "amount",
          "type": "uint256"
        },
        {
          "indexed": false,
          "internalType": "string",
          "name": "reason",
          "type": "string"
        }
      ],
      "name": "DepositReceived",
      "type": "event"
    },
    {
      "anonymous": false,
      "inputs": [
        {
          "indexed": true,
          "internalType": "address",
          "name": "user",
          "type": "address"
        },
        {
          "indexed": false,
          "internalType": "string",
          "name": "ghanaId",
          "type": "string"
        }
      ],
      "name": "StudentRegistered",
      "type": "event"
    },
    {
      "inputs": [
        {
          "internalType": "string",
          "name": "reason",
          "type": "string"
        }
      ],
      "name": "deposit",
      "outputs": [],
      "stateMutability": "payable",
      "type": "function"
    },
    {
      "inputs": [
        {
          "internalType": "address",
          "name": "",
          "type": "address"
        },
        {
          "internalType": "uint256",
          "name": "",
          "type": "uint256"
        }
      ],
      "name": "deposits",
      "outputs": [
        {
          "internalType": "uint256",
          "name": "amount",
          "type": "uint256"
        },
        {
          "internalType": "string",
          "name": "reason",
          "type": "string"
        }
      ],
      "stateMutability": "view",
      "type": "function"
    },
    {
      "inputs": [
        {
          "internalType": "address",
          "name": "user",
          "type": "address"
        },
        {
          "internalType": "uint256",
          "name": "index",
          "type": "uint256"
        }
      ],
      "name": "getDeposit",
      "outputs": [
        {
          "internalType": "uint256",
          "name": "",
          "type": "uint256"
        },
        {
          "internalType": "string",
          "name": "",
          "type": "string"
        }
      ],
      "stateMutability": "view",
      "type": "function"
    },
    {
      "inputs": [
        {
          "internalType": "address",
          "name": "user",
          "type": "address"
        }
      ],
      "name": "getDepositCount",
      "outputs": [
        {
          "internalType": "uint256",
          "name": "",
          "type": "uint256"
        }
      ],
      "stateMutability": "view",
      "type": "function"
    },
    {
      "inputs": [],
      "name": "getOwner",
      "outputs": [
        {
          "internalType": "address",
          "name": "",
          "type": "address"
        }
      ],
      "stateMutability": "view",
      "type": "function"
    },
    {
      "inputs": [],
      "name": "owner",
      "outputs": [
        {
          "internalType": "address",
          "name": "",
          "type": "address"
        }
      ],
      "stateMutability": "view",
      "type": "function"
    },
    {
      "inputs": [
        {
          "internalType": "string",
          "name": "ghanaId",
          "type": "string"
        },
        {
          "internalType": "string",
          "name": "name",
          "type": "string"
        },
        {
          "internalType": "uint256",
          "name": "balance",
          "type": "uint256"
        },
        {
          "internalType": "uint256",
          "name": "expenses",
          "type": "uint256"
        },
        {
          "internalType": "bool",
          "name": "rewards",
          "type": "bool"
        },
        {
          "internalType": "string",
          "name": "email",
          "type": "string"
        }
      ],
      "name": "registerStudent",
      "outputs": [],
      "stateMutability": "nonpayable",
      "type": "function"
    },
    {
      "inputs": [
        {
          "internalType": "address",
          "name": "",
          "type": "address"
        }
      ],
      "name": "studentData",
      "outputs": [
        {
          "internalType": "address",
          "name": "user",
          "type": "address"
        },
        {
          "internalType": "string",
          "name": "name",
          "type": "string"
        },
        {
          "internalType": "string",
          "name": "email",
          "type": "string"
        },
        {
          "internalType": "string",
          "name": "ghanaId",
          "type": "string"
        },
        {
          "internalType": "uint256",
          "name": "balance",
          "type": "uint256"
        },
        {
          "internalType": "uint256",
          "name": "expenses",
          "type": "uint256"
        },
        {
          "internalType": "bool",
          "name": "rewards",
          "type": "bool"
        }
      ],
      "stateMutability": "view",
      "type": "function"
    },
    {
      "inputs": [],
      "name": "totalBalance",
      "outputs": [
        {
          "internalType": "uint256",
          "name": "",
          "type": "uint256"
        }
      ],
      "stateMutability": "view",
      "type": "function"
    },
    {
      "inputs": [
        {
          "internalType": "uint256",
          "name": "amount",
          "type": "uint256"
        }
      ],
      "name": "withdraw",
      "outputs": [],
      "stateMutability": "nonpayable",
      "type": "function"
    }
  ],
  "bytecode": "0x608060405234801561001057600080fd5b50600080546001600160a01b03191633179055610e93806100326000396000f3fe6080604052600436106100915760003560e01c80638da5cb5b116100595780638da5cb5b14610181578063a26e1186146101a1578063a9e50216146101b4578063ad7a672f146101e7578063d6d68177146101fd57600080fd5b806313fcaf541461009657806318fc8aba146100df5780632726b506146101015780632e1a7d4d1461012f578063893d20e81461014f575b600080fd5b3480156100a257600080fd5b506100cc6100b13660046109e5565b6001600160a01b031660009081526003602052604090205490565b6040519081526020015b60405180910390f35b3480156100eb57600080fd5b506100ff6100fa366004610aaa565b61021d565b005b34801561010d57600080fd5b5061012161011c366004610b5e565b61039f565b6040516100d6929190610bce565b34801561013b57600080fd5b506100ff61014a366004610bef565b6104f3565b34801561015b57600080fd5b506000546001600160a01b03165b6040516001600160a01b0390911681526020016100d6565b34801561018d57600080fd5b50600054610169906001600160a01b031681565b6100ff6101af366004610c08565b61060a565b3480156101c057600080fd5b506101d46101cf3660046109e5565b61071e565b6040516100d69796959493929190610c3d565b3480156101f357600080fd5b506100cc60015481565b34801561020957600080fd5b50610121610218366004610b5e565b610900565b336000908152600260205260409020600301805461023a90610ca9565b15905061028e5760405162461bcd60e51b815260206004820152601760248201527f4461746120616c7265616479207265676973746572656400000000000000000060448201526064015b60405180910390fd5b6040805160e081018252338082526020808301898152838501869052606084018b90526080840189905260a0840188905286151560c085015260009283526002909152929020815181546001600160a01b0319166001600160a01b03909116178155915190919060018201906103049082610d32565b50604082015160028201906103199082610d32565b506060820151600382019061032e9082610d32565b506080820151600482015560a0820151600582015560c0909101516006909101805460ff191691151591909117905560405133907fc1b20826100814ba286ac576fe980df1dbbcef3d904bb81f3d69a0e8280dc1149061038f908990610df2565b60405180910390a2505050505050565b6001600160a01b03821660009081526003602052604081205460609083106103fe5760405162461bcd60e51b8152602060048201526012602482015271496e646578206f7574206f662072616e676560701b6044820152606401610285565b6001600160a01b038416600090815260036020526040812080548590811061042857610428610e05565b90600052602060002090600202016040518060400160405290816000820154815260200160018201805461045b90610ca9565b80601f016020809104026020016040519081016040528092919081815260200182805461048790610ca9565b80156104d45780601f106104a9576101008083540402835291602001916104d4565b820191906000526020600020905b8154815290600101906020018083116104b757829003601f168201915b5050509190925250508151602090920151919791965090945050505050565b6000546001600160a01b0316331461055b5760405162461bcd60e51b815260206004820152602560248201527f4f6e6c7920746865206f776e65722063616e2063616c6c20746869732066756e60448201526431ba34b7b760d91b6064820152608401610285565b478111156105b65760405162461bcd60e51b815260206004820152602260248201527f4e6f7420656e6f7567682062616c616e636520696e2074686520636f6e74726160448201526118dd60f21b6064820152608401610285565b600080546040516001600160a01b039091169183156108fc02918491818181858888f193505050501580156105ef573d6000803e3d6000fd5b5080600160008282546106029190610e31565b909155505050565b600034116106685760405162461bcd60e51b815260206004820152602560248201527f4465706f73697420616d6f756e74206d75737420626520677265617465722074604482015264068616e20360dc1b6064820152608401610285565b6000349050806001600082825461067f9190610e4a565b90915550506040805180820182528281526020808201858152336000908152600383529384208054600181810183559186529290942083516002909302019182555191928392908201906106d39082610d32565b505050336001600160a01b03167f552022cce40f5d253ee7c8dfe55c7aa0d052c531054ee1e57b473ca8992e8d6b8385604051610711929190610bce565b60405180910390a2505050565b600260205260009081526040902080546001820180546001600160a01b03909216929161074a90610ca9565b80601f016020809104026020016040519081016040528092919081815260200182805461077690610ca9565b80156107c35780601f10610798576101008083540402835291602001916107c3565b820191906000526020600020905b8154815290600101906020018083116107a657829003601f168201915b5050505050908060020180546107d890610ca9565b80601f016020809104026020016040519081016040528092919081815260200182805461080490610ca9565b80156108515780601f1061082657610100808354040283529160200191610851565b820191906000526020600020905b81548152906001019060200180831161083457829003601f168201915b50505050509080600301805461086690610ca9565b80601f016020809104026020016040519081016040528092919081815260200182805461089290610ca9565b80156108df5780601f106108b4576101008083540402835291602001916108df565b820191906000526020600020905b8154815290600101906020018083116108c257829003601f168201915b50505050600483015460058401546006909401549293909290915060ff1687565b6003602052816000526040600020818154811061091c57600080fd5b90600052602060002090600202016000915091505080600001549080600101805461094690610ca9565b80601f016020809104026020016040519081016040528092919081815260200182805461097290610ca9565b80156109bf5780601f10610994576101008083540402835291602001916109bf565b820191906000526020600020905b8154815290600101906020018083116109a257829003601f168201915b5050505050905082565b80356001600160a01b03811681146109e057600080fd5b919050565b6000602082840312156109f757600080fd5b610a00826109c9565b9392505050565b634e487b7160e01b600052604160045260246000fd5b600082601f830112610a2e57600080fd5b813567ffffffffffffffff80821115610a4957610a49610a07565b604051601f8301601f19908116603f01168101908282118183101715610a7157610a71610a07565b81604052838152866020858801011115610a8a57600080fd5b836020870160208301376000602085830101528094505050505092915050565b60008060008060008060c08789031215610ac357600080fd5b863567ffffffffffffffff80821115610adb57600080fd5b610ae78a838b01610a1d565b97506020890135915080821115610afd57600080fd5b610b098a838b01610a1d565b96506040890135955060608901359450608089013591508115158214610b2e57600080fd5b90925060a08801359080821115610b4457600080fd5b50610b5189828a01610a1d565b9150509295509295509295565b60008060408385031215610b7157600080fd5b610b7a836109c9565b946020939093013593505050565b6000815180845260005b81811015610bae57602081850181015186830182015201610b92565b506000602082860101526020601f19601f83011685010191505092915050565b828152604060208201526000610be76040830184610b88565b949350505050565b600060208284031215610c0157600080fd5b5035919050565b600060208284031215610c1a57600080fd5b813567ffffffffffffffff811115610c3157600080fd5b610be784828501610a1d565b6001600160a01b038816815260e060208201819052600090610c6190830189610b88565b8281036040840152610c738189610b88565b90508281036060840152610c878188610b88565b6080840196909652505060a0810192909252151560c090910152949350505050565b600181811c90821680610cbd57607f821691505b602082108103610cdd57634e487b7160e01b600052602260045260246000fd5b50919050565b601f821115610d2d57600081815260208120601f850160051c81016020861015610d0a5750805b601f850160051c820191505b81811015610d2957828155600101610d16565b5050505b505050565b815167ffffffffffffffff811115610d4c57610d4c610a07565b610d6081610d5a8454610ca9565b84610ce3565b602080601f831160018114610d955760008415610d7d5750858301515b600019600386901b1c1916600185901b178555610d29565b600085815260208120601f198616915b82811015610dc457888601518255948401946001909101908401610da5565b5085821015610de25787850151600019600388901b60f8161c191681555b5050505050600190811b01905550565b602081526000610a006020830184610b88565b634e487b7160e01b600052603260045260246000fd5b634e487b7160e01b600052601160045260246000fd5b81810381811115610e4457610e44610e1b565b92915050565b80820180821115610e4457610e44610e1b56fea2646970667358221220ac37e2b0500bb4ebaa8c1a155206b0c2a56c045acb92faf4f21a26e43367067a64736f6c63430008120033",
  "linkReferences": {},
  "deployedLinkReferences": {}
}