{
  "_format": "hh-sol-artifact-1",
  "contractName": "StudentSavings",
  "sourceName": "contracts/StudentSavings.sol",
  "abi": [
    {
      "inputs": [
        {
          "internalType": "uint256",
          "name": "_reward",
          "type": "uint256"
        },
        {
          "internalType": "uint256",
          "name": "_courseFee",
          "type": "uint256"
        },
        {
          "internalType": "uint256",
          "name": "_withdrawLimit",
          "type": "uint256"
        },
        {
          "internalType": "uint256",
          "name": "_timeLimit",
          "type": "uint256"
        }
      ],
      "stateMutability": "nonpayable",
      "type": "constructor"
    },
    {
      "anonymous": false,
      "inputs": [
        {
          "indexed": true,
          "internalType": "address",
          "name": "student",
          "type": "address"
        },
        {
          "indexed": false,
          "internalType": "uint256",
          "name": "amount",
          "type": "uint256"
        }
      ],
      "name": "Deposit",
      "type": "event"
    },
    {
      "anonymous": false,
      "inputs": [
        {
          "indexed": true,
          "internalType": "address",
          "name": "student",
          "type": "address"
        }
      ],
      "name": "EnrollInCourse",
      "type": "event"
    },
    {
      "anonymous": false,
      "inputs": [
        {
          "indexed": true,
          "internalType": "address",
          "name": "student",
          "type": "address"
        },
        {
          "indexed": false,
          "internalType": "uint256",
          "name": "amount",
          "type": "uint256"
        }
      ],
      "name": "Withdraw",
      "type": "event"
    },
    {
      "inputs": [],
      "name": "courseFee",
      "outputs": [
        {
          "internalType": "uint256",
          "name": "",
          "type": "uint256"
        }
      ],
      "stateMutability": "view",
      "type": "function"
    },
    {
      "inputs": [],
      "name": "deposit",
      "outputs": [],
      "stateMutability": "payable",
      "type": "function"
    },
    {
      "inputs": [],
      "name": "getBalance",
      "outputs": [
        {
          "internalType": "uint256",
          "name": "",
          "type": "uint256"
        }
      ],
      "stateMutability": "view",
      "type": "function"
    },
    {
      "inputs": [],
      "name": "lastWithdrawTime",
      "outputs": [
        {
          "internalType": "uint256",
          "name": "",
          "type": "uint256"
        }
      ],
      "stateMutability": "view",
      "type": "function"
    },
    {
      "inputs": [],
      "name": "owner",
      "outputs": [
        {
          "internalType": "address",
          "name": "",
          "type": "address"
        }
      ],
      "stateMutability": "view",
      "type": "function"
    },
    {
      "inputs": [],
      "name": "reward",
      "outputs": [
        {
          "internalType": "uint256",
          "name": "",
          "type": "uint256"
        }
      ],
      "stateMutability": "view",
      "type": "function"
    },
    {
      "inputs": [
        {
          "internalType": "address",
          "name": "",
          "type": "address"
        }
      ],
      "name": "savings",
      "outputs": [
        {
          "internalType": "uint256",
          "name": "",
          "type": "uint256"
        }
      ],
      "stateMutability": "view",
      "type": "function"
    },
    {
      "inputs": [],
      "name": "timeLimit",
      "outputs": [
        {
          "internalType": "uint256",
          "name": "",
          "type": "uint256"
        }
      ],
      "stateMutability": "view",
      "type": "function"
    },
    {
      "inputs": [
        {
          "internalType": "uint256",
          "name": "amount",
          "type": "uint256"
        }
      ],
      "name": "withdraw",
      "outputs": [],
      "stateMutability": "nonpayable",
      "type": "function"
    },
    {
      "inputs": [],
      "name": "withdrawCount",
      "outputs": [
        {
          "internalType": "uint256",
          "name": "",
          "type": "uint256"
        }
      ],
      "stateMutability": "view",
      "type": "function"
    },
    {
      "inputs": [],
      "name": "withdrawLimit",
      "outputs": [
        {
          "internalType": "uint256",
          "name": "",
          "type": "uint256"
        }
      ],
      "stateMutability": "view",
      "type": "function"
    }
  ],
  "bytecode": "0x608060405234801561001057600080fd5b5060405161062d38038061062d83398101604081905261002f91610058565b600080546001600160a01b0319163317905560019390935560029190915560035560045561008e565b6000806000806080858703121561006e57600080fd5b505082516020840151604085015160609095015191969095509092509050565b6105908061009d6000396000f3fe60806040526004361061009c5760003560e01c80636e6b7984116100645780636e6b79841461014d5780638da5cb5b14610163578063ab2315111461019b578063c08d1fe5146101b1578063d0e30db0146101c7578063f848d541146101cf57600080fd5b806312065fe0146100a15780631f7cdd5f146100d2578063228cb733146100ff5780632e1a7d4d146101155780634cc05a7114610137575b600080fd5b3480156100ad57600080fd5b50336000908152600760205260409020545b6040519081526020015b60405180910390f35b3480156100de57600080fd5b506100bf6100ed3660046104b6565b60076020526000908152604090205481565b34801561010b57600080fd5b506100bf60015481565b34801561012157600080fd5b506101356101303660046104e6565b6101e5565b005b34801561014357600080fd5b506100bf60065481565b34801561015957600080fd5b506100bf60025481565b34801561016f57600080fd5b50600054610183906001600160a01b031681565b6040516001600160a01b0390911681526020016100c9565b3480156101a757600080fd5b506100bf60055481565b3480156101bd57600080fd5b506100bf60045481565b6101356103fd565b3480156101db57600080fd5b506100bf60035481565b336000908152600760205260409020548111156102405760405162461bcd60e51b8152602060048201526014602482015273496e73756666696369656e742062616c616e636560601b60448201526064015b60405180910390fd5b60035460065411156102945760405162461bcd60e51b815260206004820152601760248201527f5769746864726177206c696d69742065786365656465640000000000000000006044820152606401610237565b6004546005546102a49042610515565b10156102eb5760405162461bcd60e51b8152602060048201526016602482015275151a5b59481b1a5b5a5d081b9bdd081c995858da195960521b6044820152606401610237565b336000908152600760205260408120805483929061030a908490610515565b90915550506006805490600061031f8361052e565b90915550504260055560405181815233907f884edad9ce6fa2440d8a54cc123490eb96d2768479d49ff9c7366125a94243649060200160405180910390a260035460065411156103bc5760405133907feb0947b448e02f287d750f153b7869477ed45d6722afa2d9260ceb34f5f2265490600090a260025433600090815260076020526040812080549091906103b6908490610515565b90915550505b600354600654116103fa57600354600654036103fa5760015433600090815260076020526040812080549091906103f4908490610547565b90915550505b50565b6000341161045b5760405162461bcd60e51b815260206004820152602560248201527f4465706f73697420616d6f756e74206d75737420626520677265617465722074604482015264068616e20360dc1b6064820152608401610237565b336000908152600760205260408120805434929061047a908490610547565b909155505060405134815233907fe1fffcc4923d04b559f4d29a8bfc6cda04eb5b0d3c460751c2402c5c5cc9109c9060200160405180910390a2565b6000602082840312156104c857600080fd5b81356001600160a01b03811681146104df57600080fd5b9392505050565b6000602082840312156104f857600080fd5b5035919050565b634e487b7160e01b600052601160045260246000fd5b81810381811115610528576105286104ff565b92915050565b600060018201610540576105406104ff565b5060010190565b80820180821115610528576105286104ff56fea2646970667358221220f211d32a9c3dca526ff11432b9388d570c8573de2ae85a73a134772e503fdc6264736f6c63430008120033",
  "linkReferences": {},
  "deployedLinkReferences": {}
}